:100000000C94F3010C94692C0C9412020C941202BF
:100010000C9412020C9412020C9412020C94120210
:100020000C9412020C94972C0C9412020C94120251
:100030000C9412020C944A2A0C9412020C944A2A30
:100040000C9412020C947D2A0C9412020C9412024D
:100050000C9412020C9412020C9412020C941202D0
:100060000C9412020C9412020C9412020C941202C0
:100070000C9412020C9412020C9412020C941202B0
:100080000C94872A0C9412020C9412020C94120203
:100090000C94A2170C9412020C9412020C941202EB
:1000A0000C9412020C9412020C9412020C94120280
:1000B0000C9412020C9412020C9412020C94120270
:1000C0000C9412020C9412020C941202311B351B78
:1000D000371B391B3B1B3D1B421B3F1B451B481B52
:1000E0004B1B511B541B571B5A1B4E1B2F1B331BE7
:1000F0005478207461736B2073656E74206461742E
:1001000061210D0A004E4F2061636B206F722052F7
:100110006573657276652056696F6C6174656421DC
:100120000D0A00424D4143204552524F523A20633E
:1001300072656174696E6720656E61626C652073BB
:1001400069676E616C206661696C65640D0A0042C6
:100150004D4143204552524F523A206372656174BB
:10016000696E67207478207369676E616C206661C0
:10017000696C65640D0A00424D4143204552524F5F
:10018000523A206372656174696E672072782073D9
:1001900069676E616C206661696C65640D0A004375
:1001A0004332343230204552524F523A2020526569
:1001B0006C65617365206F662073656D6170686F33
:1001C0007265206661696C65640D0A0043433234D0
:1001D0003230204552524F523A20204163636573BA
:1001E0007320746F2073656D6170686F726520662F
:1001F00061696C65640D0A00554E4B4F574E0046C1
:1002000061696C656420746F206372656174652038
:1002100053656D6170686F7265004661696C6564F5
:1002200020746F20637265617465205369676E6125
:100230006C004B65726E656C2066756E6374696FD9
:100240006E206E6F7420696D706C656D656E74657F
:10025000640044657669636520447269766572203E
:100260004572726F72005761746368646F672052E1
:100270006573746172740054696D6572204F7665A0
:1002800072666C6F7700556E68616E646C65642091
:10029000496E7465727275707420566563746F72FE
:1002A000004C6F7720566F6C7461676500457874F9
:1002B0007261205461736B20737461727465642C75
:1002C000206973206E726B5F6366672E68206F6BA8
:1002D0003F0049646C65206F72204B65726E656CDF
:1002E00020537461636B204F766572666C6F770084
:1002F000556E6578706563746564205265737461CA
:100300007274004475706C69636174656420546133
:10031000736B204944005363686564756C65722093
:100320004D69737365642057616B65757000546126
:10033000736B20526573657276652056696F6C61C8
:100340007465640052657365727665204572726FDC
:100350007220696E205363686564756C657200492C
:100360006E76616C696420537461636B20506F69B1
:100370006E746572005461736B20537461636B20FB
:100380004F766572666C6F7700537461636B20778C
:100390006173206E6F7420646566696E65642061A8
:1003A00073206C6172676520656E6F7567682100E8
:1003B000293A20002A4E524B204552524F522800D3
:1003C0000D0A535441434B2044554D500D0A0045EE
:1003D000464765666700202B2D2E30313233343589
:1003E00036373839680011241FBECFEFD1E2DEBFA7
:1003F000CDBF12E0A0E0B2E0EEE2F5E600E00BBF18
:1004000002C007900D92AA3BB107D9F717E0AAEBFB
:10041000B2E001C01D92A73AB107E1F70E948E0336
:100420000C9496320C94B52A0F931F9386E093E0B8
:100430009093F1048093F0040BEE14E040E850E058
:1004400061E773E0C8010E94732D82E08093F3049A
:1004500081E08093F2048093F4048093F504109279
:10046000F6041092F7041092F8041092F90480E850
:1004700092EBA6EEBEE08093FA049093FB04A09367
:10048000FC04B093FD0481E090E0A0E0B0E0809334
:10049000FE049093FF04A0930005B093010580E053
:1004A00092ECABEEBBE08093020590930305A09322
:1004B0000405B093050510920605109207051092E9
:1004C00008051092090510920A0510920B0510926A
:1004D0000C0510920D05C8010E94B42280E092E044
:1004E0000E94F12F1F910F9108958F929F92AF92CA
:1004F000BF92CF92DF92EF92FF921F93CF93DF9341
:100500000E94B62099279F938F938DE092E09F934E
:100510008F930E94DA2F0F900F900F900F9002C0D0
:100520000E9476220E944D048823D1F30E94BE05CA
:100530000E94361D1092FD031092FE031092FF03DD
:100540001092000410E0C7E7D4E03EE1832E32E0D1
:10055000932E2DEFA22E23E0B22E95E0C92E91E02E
:10056000D92E80EFE82E80E0F82E812F99279F93D7
:100570008F939F928F92DF93CF930E94243081E0DC
:1005800090E00E94E1161093FD038DB79EB706968A
:100590000FB6F8949EBF0FBE8DBF1F3F29F4809108
:1005A000FE038F5F8093FE038091FE038F3F29F44B
:1005B0008091FF038F5F8093FF038091FF038F3F44
:1005C00029F4809100048F5F8093000464E0C501EA
:1005D0000E945507FE0101900020E9F73197E75787
:1005E000F4406E2FCE010E94F605813011F41F5F9A
:1005F00003C0C6010E948F17C7010E948F1781E0B8
:1006000090E00E94C4160E947622AFCFAF92BF92B4
:10061000CF92DF92EF92FF920F931F93CF93DF93CE
:10062000CDB7DEB760970FB6F894DEBF0FBECDBF73
:1006300084E10E94470619861A861B861C8680E480
:1006400098E7ADE7B1E08D879E87AF87B88B2985A6
:100650003A854B855C856D857E858F8598890E945E
:10066000090481E090E00E9407070E940C070E94A5
:10067000160764E781E094E00E94D10352E0A52EC2
:10068000B12CAC0EBD1E6E010894C11CD11C43E000
:10069000E42EF12CEC0EFD1E00E312E00E94D205C8
:1006A00080E090E00E94E116B501C6010E94B20709
:1006B0008981282F3327B9016650704041E001C07D
:1006C0004E5F842F992786179707D0F3D701F9013A
:1006D000E550FC4F86E001900D928150E1F78F814B
:1006E00098859F938F938D819E819F938F938B810C
:1006F0009C819F938F931F930F930E94DA2F80E02A
:1007000090E00E94C4160E9400048DB79EB7089620
:100710000FB6F8949EBF0FBE8DBFC0CFCFEFD1E212
:10072000DEBFCDBF0E94241387E090E00E945917DE
:100730000E94171A80E090E00E94C41681E090E0C9
:100740000E94C41682E090E00E94C41683E090E00C
:100750000E94C41620E030E040E050E060E070E02D
:1007600080E090E00E9418240E9466040E94140217
:100770000E94B71980E090E00C9496328091410677
:100780009927089580914A0699270895089590938E
:10079000F2038093F10381E090E0089580934A038F
:1007A0000895009719F48FEF9FEF08959093B9057E
:1007B0008093B8056093B70581E080934C0681E093
:1007C00090E008959C0180914106813019F48FEFEB
:1007D0009FEF089581E0809341063093F5032093C5
:1007E000F4036093F30381E090E0089520E030E0AB
:1007F00080914C06882311F421E030E0C90108956E
:1008000081E080934C0681E090E0089510924006CC
:100810000895CF93DF93CDB7DEB728970FB6F8943E
:10082000DEBF0FBECDBF29833A834B835C836D83CC
:100830007E838F8398872D813E814F815885898162
:100840009A81AB81BC810097A105B10559F4203094
:100850006DE2360761E3460761E0560718F48FEF53
:100860009FEF12C08093420690934306A0934406E4
:10087000B0934506209346063093470640934806BA
:100880005093490681E090E028960FB6F894DEBFB9
:100890000FBECDBFDF91CF91089580913F0699277C
:1008A00087FD90950895823018F481E090E00895D6
:1008B000883008F086E091E020E030E0990F2F5F6B
:1008C0003F4F2817D8F3892F992708950F931F9327
:1008D0000DE413E06FE577E0C8010E94122D40E8B7
:1008E00050E062E375E0C8010E94732D84E18093BB
:1008F000550381E0809354038093560380935703FC
:10090000109258031092590310925A0310925B03ED
:1009100080E09DE2A1E3B1E080935C0390935D03EE
:10092000A0935E03B0935F038AE090E0A0E0B0E0A4
:100930008093600390936103A0936203B093630379
:10094000109264031092650310926603109267037D
:10095000109268031092690310926A0310926B035D
:1009600010926C0310926D0310926E0310926F033D
:10097000C8010E94B4221F910F91089581E08093D5
:100980004006809170030E943E1E08950F931F93AE
:100990000E94BE0C8AEF90E00E94802909B10E945B
:1009A000A60C112784E0169507958A95E1F7C801F2
:1009B000817090701F910F910895EF92FF920F93A5
:1009C0001F9380914A03882309F463C02091420653
:1009D0003091430640914406509145066091460689
:1009E0007091470680914806909149060E942924FB
:1009F0008C010E94442F6AE070E00E94FB31BC0130
:100A00006F5F7F4FC8010E94E731CB010E94E12157
:100A1000FF24F3940E94C604E82E81E0E816C9F191
:100A20000E94442F8C018F2D0E945304682F77273A
:100A3000C8010E94FB3199270E944322209142065F
:100A40003091430640914406509145066091460618
:100A50007091470680914806909149060E9429248A
:100A60008C010E94442F6AE070E00E94FB31BC01BF
:100A70006F5F7F4FC8010E94E731CB010E94E121E7
:100A8000EE2039F4F39486E08F1520F696E0F92EE7
:100A9000C1CF0E94EF090E94A60920914206309121
:100AA0004306409144065091450660914606709178
:100AB000470680914806909149060E94C7200E94EF
:100AC00092090E94BA090E94A60C81EF93E00E944D
:100AD000250D80934A060E94A60C10924106809133
:100AE0003D060E943E1E81E090E01F910F91FF9015
:100AF000EF9008950F931F9360914B0683EB95E061
:100B00000E9494110E94BE0C10E015C01F5F20913E
:100B1000420630914306409144065091450660914B
:100B200046067091470680914806909149060E94BA
:100B3000C720143061F00E946109882339F30AC08C
:100B40001F5F84E690E00E948029133321F40E9405
:100B5000A60C0AC010E00E944F0A082F882381F3D8
:100B60000E94A60C013019F080E090E004C01092C1
:100B70004C0681E090E01F910F91089580913D0611
:100B80000E94361D80913D06992787FD9095089516
:100B90008091FC030E94361D8091FC03992787FDFC
:100BA000909508958091FC030E94361D61E070E0ED
:100BB00080E090E00090FC0304C0660F771F881F60
:100BC000991F0A94D2F70E94901F0090FC0304C062
:100BD00096958795779567950A94D2F760FD03C03F
:100BE0008FEF9FEF089581E090E008951F93CF93DA
:100BF000DF93EC01162F80914106813079F18091CD
:100C00003E068F3F41F0992787FD90950E941E294F
:100C10008F5F9F4F19F180913D060E94361D81E044
:100C200080934106D093F503C093F4031093F3032C
:100C300061E070E080E090E000903D0604C0660F47
:100C4000771F881F991F0A94D2F70E94901F8091E6
:100C50004A06882319F081E090E002C08FEF9FEFF1
:100C6000DF91CF911F910895682F8B3118F08FEF8E
:100C70009FEF089580934B0620E030E04FEF5FEF49
:100C800083EB95E00E94D11181E090E008951F93DD
:100C9000182F8FEF80933E0681E080934A031092D5
:100CA000420610924306109244061092450680E0D8
:100CB00091EEA5EFB5E08093460690934706A0938A
:100CC0004806B09349060E94AD1C8093FC038F3FF9
:100CD00019F487E791E008C00E94AD1C80933D069F
:100CE0008F3F79F48FE491E00E948F17E0911A070B
:100CF000F0911B0760858EE00E94A61B8FEF9FEF8F
:100D00005BC00E94AD1C809370038F3F19F483E297
:100D100091E0EACF1092410610924C061092B9056C
:100D20001092B8051092B70520E030E04FEF5FEF6A
:100D3000612F83EB95E00E94D11110934B064098F0
:100D400083E18EBD0DB407FEFDCF85EE8EBD0DB4E3
:100D500007FEFDCF80E88EBD0DB407FEFDCF409AA3
:100D6000409885E18EBD0DB407FEFDCF80E88EBDB5
:100D70000DB407FEFDCF8FEF8EBD0DB407FEFDCF86
:100D8000409A409887E18EBD0DB407FEFDCF8AE002
:100D90008EBD0DB407FEFDCF86E58EBD0DB407FEFA
:100DA000FDCF409A83ED0E94260A81E080933F06A2
:100DB0008093400681E090E01F9108950E94260AEA
:100DC00081E090E00895803218F08FEF9FEF089552
:100DD0000E94FE0C81E090E008950E94CD0881E021
:100DE00090E008950E94A70881E090E008956031A6
:100DF00019F08FEF9FEF08950E94A71081E090E017
:100E000008950E945C08992787FD909508950E9497
:100E10006C1081E090E008950E94E60881E090E087
:100E200008950E94010981E090E008950E941C0944
:100E300081E090E008950E943A0981E090E00895F1
:100E400080913E0687FF03C080E090E008959927D7
:100E500087FD90950E94552908950F931F93CF9376
:100E6000DF938C01EB0180913E068F3F21F40E94BD
:100E7000122880933E0680913E0687FF03C02FEF25
:100E80003FEF0DC020E030E0AE01B801992787FDAB
:100E900090950E944C28282F332727FD3095C901B3
:100EA000DF91CF911F910F910895643019F08FEF6A
:100EB0009FEF08950E94600881E090E0089502C0CD
:100EC0000E94762280913F068823D1F3809170039F
:100ED0000E94361D80914006882349F180914C067E
:100EE000813061F40E94C604882341F40E947A058F
:100EF000813021F48091FC030E943E1E80914106C6
:100F0000813011F40E94DD042091420630914306A5
:100F100040914406509145066091460670914706FF
:100F200080914806909149060E94C720D3CF61E086
:100F300070E080E090E00090700304C0660F771FBF
:100F4000881F991F0A94D2F70E94901F0090700387
:100F500004C096958795779567950A94D2F760FDBA
:100F6000B9CFE5CFFC01DB0180914C06882329F045
:100F700010821C9280E090E008958091B6058083F5
:100F80008091BB058C938091B8059091B905089527
:100F9000CF93DF93DC014AEB52E02091BA02332772
:100FA00027FD3095C9010196FC01EE0FFF1FE80FE8
:100FB000F91FEE0FFF1FE40FF51F80819181ED01F6
:100FC0009D838C83F901EE0FFF1FE20FF31FEE0FDD
:100FD000FF1FE40FF51F848195819B838A838281A3
:100FE00093818D939C93DF91CF910895CF93DF935D
:100FF000DC016AEB72E04091BA025091BB0281E0E1
:101000008427992787FD90959C012F5F3F4FF90119
:10101000EE0FFF1FE20FF31FEE0FFF1FE60FF71F8C
:10102000ED012C813D8131832083FC01EE0FFF1FF8
:10103000E80FF91FEE0FFF1FE60FF71F8A819B8154
:10104000958384838D919C919383828381E090E04A
:10105000482759275093BB024093BA02DF91CF91A2
:10106000089599279C01265A3E4B0B97880F991F8C
:10107000880F991F280F391FF894409888E18EBD7A
:101080000DB407FEFDCF832F99278EBD0DB407FE4B
:10109000FDCF2EBD0DB407FEFDCF409A7894089584
:1010A000F89440981EBC0DB407FEFDCF8EB5409A53
:1010B000789486FFF5CF0895809162069927089568
:1010C000CF93DF93DC01409889EC8EBD0DB407FE11
:1010D000FDCF80E88EBD0DB407FEFDCF92E09150AC
:1010E000FD01E90FF11D80818EBD0DB407FEFDCF1E
:1010F0009923A9F7409A40988BEC8EBD0DB407FE5A
:10110000FDCF80E88EBD0DB407FEFDCF92E09D01BE
:101110002E5F3F4FE9019150F901E90FF11D8081E8
:101120008EBD0DB407FEFDCF9923A1F7409A8C9197
:1011300080936306FD01818180936406888180939A
:101140006506838180936606DF91CF91089540986C
:1011500089E18EBD0DB407FEFDCF83E08EBD0DB4D9
:1011600007FEFDCF86E08EBD0DB407FEFDCF409A91
:1011700040988AE18EBD0DB407FEFDCF8EE08EBD96
:101180000DB407FEFDCF8EE08EBD0DB407FEFDCF82
:10119000409A81E0809353060895409889E18EBD7E
:1011A0000DB407FEFDCF81E08EBD0DB407FEFDCF6F
:1011B00084EC8EBD0DB407FEFDCF409A109253060D
:1011C00008958091510690915206089520915406F9
:1011D0003091550638603093550620935406409858
:1011E00081E18EBD0DB407FEFDCF832F99278EBD03
:1011F0000DB407FEFDCF2EBD0DB407FEFDCF409A06
:1012000008952091540630915506377F3093550646
:1012100020935406409881E18EBD0DB407FEFDCFAA
:10122000832F99278EBD0DB407FEFDCF2EBD0DB4C3
:1012300007FEFDCF409A089581E0809361062091DA
:10124000540630915506206130935506209354067C
:10125000409881E18EBD0DB407FEFDCF832F992705
:101260008EBD0DB407FEFDCF2EBD0DB407FEFDCF24
:10127000409A0895109261062091540630915506C7
:101280002F7E3093550620935406409881E18EBD01
:101290000DB407FEFDCF832F99278EBD0DB407FE39
:1012A000FDCF2EBD0DB407FEFDCF409A089589B144
:1012B000992766E0969587956A95E1F78170907019
:1012C00008958CB1992787FD90958827990F881FDD
:1012D0009927089589B19927E6E096958795EA952B
:1012E000E1F781709070089580916706882319F462
:1012F00080E090E008958091670610926706992734
:1013000087FD90950895409888E08EBD0DB407FE46
:10131000FDCF409A409888E08EBD0DB407FEFDCF0A
:10132000409A089580915106909152060E943C1F68
:10133000409886E08EBD0DB407FEFDCF409A8091A7
:101340005106909152060E94EA1D0895809151061F
:10135000909152060E943C1F409884E08EBD0DB4CF
:1013600007FEFDCF409A80915106909152060E944F
:10137000EA1D089580915106909152060E943C1FEB
:10138000409886E08EBD0DB407FEFDCF409A409890
:1013900082E18EBD0DB407FEFDCF85E08EBD0DB49C
:1013A00007FEFDCF1EBC0DB407FEFDCF409A40984E
:1013B0008EE28EBD0DB407FEFDCF1EBC0DB407FE40
:1013C000FDCF1EBC0DB407FEFDCF409A0E948309DD
:1013D00080915106909152060E94EA1D08958091D5
:1013E0005106909152060E943C1F409886E08EBDA7
:1013F0000DB407FEFDCF409A409882E18EBD0DB43A
:1014000007FEFDCF85E08EBD0DB407FEFDCF88E061
:101410008EBD0DB407FEFDCF409A40988EE28EBD82
:101420000DB407FEFDCF88E18EBD0DB407FEFDCFE4
:101430001EBC0DB407FEFDCF409A0E948309809127
:101440005106909152060E94EA1D08950F931F9332
:10145000082F80915106909152060E943C1F11273F
:1014600007FD1095302F22272068409883E18EBD1C
:101470000DB407FEFDCF832F99278EBD0DB407FE57
:10148000FDCF2EBD0DB407FEFDCF409A80915106D1
:10149000909152060E94EA1D1F910F910895CF93DB
:1014A000DF93CDB7DEB724970FB6F894DEBF0FBE3B
:1014B000CDBF80915106909152060E943C1F679BC0
:1014C00034C210926206679B25C0319923C04098B0
:1014D0008FE78EBD0DB407FEFDCF1EBC0DB407FE19
:1014E000FDCF8EB5409A409888E08EBD0DB407FEC2
:1014F000FDCF409A409888E08EBD0DB407FEFDCF29
:10150000409A80915106909152060E94EA1D8FEFF9
:101510009FEF13C240988FE78EBD0DB407FEFDCF3D
:101520001EBC0DB407FEFDCF4EB5409A4F7719F59E
:1015300040988FE78EBD0DB407FEFDCF1EBC0DB4E5
:1015400007FEFDCF8EB5409A409888E08EBD0DB461
:1015500007FEFDCF409A409888E08EBD0DB407FE8F
:10156000FDCF409A80915106909152060E94EA1D4B
:101570008EEF9FEFE2C145308CF0E0915606F0917E
:101580005706242F332727FD30952B503040848178
:10159000992787FD909582179307F4F540988FE778
:1015A0008EBD0DB407FEFDCF60E070E0242F332721
:1015B00027FD309506C01EBC0DB407FEFDCF6F5F42
:1015C0007F4F862F99278217930714F43199F3CF11
:1015D000409A40988FE78EBD0DB407FEFDCF1EBC2C
:1015E0000DB407FEFDCF8EB5409A409888E08EBDC1
:1015F0000DB407FEFDCF409A409888E08EBD0DB433
:1016000007FEFDCF409A80915106909152060E94AC
:10161000EA1D8DEF9FEF91C1E0915606F0915706BC
:101620004C50438340988FE78EBD0DB407FEFDCF2D
:10163000FE0131969E012D5F3F4F1EBC0DB407FE8B
:10164000FDCF8EB58193E217F307B9F7409AE09189
:101650005606F091570689819A81B5E0969587954F
:10166000BA95E1F78170878340988FE78EBD0DB4FE
:1016700007FEFDCF1EBC0DB407FEFDCFE091560660
:10168000F09157068EB58083409A40988FE78EBDC3
:101690000DB407FEFDCF80E007C01EBC0DB407FEF1
:1016A000FDCF8F5F843011F03199F7CF409A409889
:1016B0008FE78EBD0DB407FEFDCF20E030E01EBCED
:1016C0000DB407FEFDCFE0915606F0915706E20FEC
:1016D000F31F8EB581832F5F3F4F2230310579F79D
:1016E000409A89819A8183FF56C040988FE78EBDCA
:1016F0000DB407FEFDCFEDE4F6E01EBC0DB407FE11
:10170000FDCF8EB5819386E0E135F807B1F7409AB9
:10171000409889E98EBD0DB407FEFDCF80E88EBDEF
:101720000DB407FEFDCF92E09150E92FFF27E35B58
:10173000F94F80818EBD0DB407FEFDCF9923A1F72F
:10174000409A40988BE98EBD0DB407FEFDCF80E82E
:101750008EBD0DB407FEFDCF92E09150E92FFF271B
:10176000E15BF94F80818EBD0DB407FEFDCF99235B
:10177000A1F7409A40988CE08EBD0DB407FEFDCFD6
:10178000409A81E080936206E0915606F0915706F8
:1017900083818450838340988FE78EBD0DB407FE0C
:1017A000FDCF40E050E011C01EBC0DB407FEFDCFE0
:1017B000E0915606F09157060580F681E02DE60F80
:1017C000F11D8EB580834F5F5F4F642FE091560609
:1017D000F0915706242F33278381992787FD909511
:1017E000281739070CF3409A40988FE78EBD0DB447
:1017F00007FC0AC0FCCF0DB407FEFDCF5EB5409AD2
:1018000040988FE78EBD02C01EBCF5CF0DB407FE19
:10181000FDCFFE0133969E012B5F3F4F1EBC0DB4E2
:1018200007FEFDCF8EB58193E217F307B9F7409A13
:10183000E0915606F09157068B81808740E020E0CA
:1018400030E00AC0E0915606F091570685819681F6
:10185000A80FB91F8C91480F822FE0915606F09186
:1018600057062F5F3F4FA82FBB278381992787FDFE
:101870009095A817B90734F3451719F140988FE7E9
:101880008EBD0DB407FEFDCF1EBC0DB407FEFDCF0F
:101890008EB5409A409888E08EBD0DB407FEFDCF0E
:1018A000409A409888E08EBD0DB407FEFDCF409A67
:1018B00080915106909152060E94EA1D8CEF9FEF95
:1018C0003CC08C8187FF0EC0809167068F5F80933C
:1018D000670680915106909152060E94EA1D81E0B0
:1018E00090E02BC040988FE78EBD0DB407FEFDCF72
:1018F0001EBC0DB407FEFDCF8EB5409A409888E01F
:101900008EBD0DB407FEFDCF409A409888E08EBD95
:101910000DB407FEFDCF409A80915106909152067A
:101920000E94EA1D8BEF9FEF08C0809151069091B5
:1019300052060E94EA1D80E090E024960FB6F894CB
:10194000DEBF0FBECDBFDF91CF91089580915106CC
:10195000909152060E943C1F10925E06409886E0CD
:101960008EBD0DB407FEFDCF409A109267068091A0
:101970005106909152060E94EA1D089580915106E9
:10198000909152060E943C1F81E080935E06409831
:1019900083E08EBD0DB407FEFDCF409A409888E0ED
:1019A0008EBD0DB407FEFDCF409A10926706809160
:1019B0005106909152060E94EA1D089580915106A9
:1019C000909152060E943C1F81E080935E064098F1
:1019D00083E08EBD0DB407FEFDCF409A409888E0AD
:1019E0008EBD0DB407FEFDCF409A10926706809120
:1019F0005106909152060E94EA1D08951F93182FD8
:101A000080915106909152060E943C1F212F33274E
:101A10002F713070206E306A409885E18EBD0DB414
:101A200007FEFDCF832F99278EBD0DB407FEFDCF96
:101A30002EBD0DB407FEFDCF409A809151069091C6
:101A400052060E94EA1D1F910895EF92FF920F9394
:101A50001F93CF93DF93CDB7DEB722970FB6F894DD
:101A6000DEBF0FBECDBF8C01809151069091520612
:101A70000E943C1F50915306552339F040988DE049
:101A80008EBD0DB407FEFDCF409AF8014281642F50
:101A9000772767FD7095A0E020E030E008C0F801EE
:101AA00083819481E80EF91EF7018081A80F822FAF
:101AB0002F5F3F4FE82EFF24E616F70684F3942F9E
:101AC000945F51119C5F6799FECF4E99FCCFF894BB
:101AD000409889E08EBD0DB407FEFDCF409A409836
:101AE00089E08EBD0DB407FEFDCF409A40988EE38D
:101AF0008EBD0DB407FC05C0FCCF0DB407FC30C192
:101B0000FCCF9EBDFACF81E698E89A83898355235E
:101B100029F089819A8188609A83898340988EE32D
:101B20008EBD0DB407FEFDCFFE0131969E012D5FE7
:101B30003F4F80818EBD0DB407FEFDCF3196E21779
:101B4000F307B9F7409A40988EE38EBD0DB407FCB9
:101B500005C0FCCF0DB407FC0EC1FCCF8091580628
:101B60008EBDF8CF0DB407FEFDCF20E030E0F901C7
:101B7000E65AF94F80818EBD0DB407FEFDCF2F5F71
:101B80003F4F2230310599F7409A40988EE38EBD41
:101B90000DB407FEFDCF20E030E0F801E20FF31FA7
:101BA00080818EBD0DB407FEFDCF2F5F3F4F2230E9
:101BB000310599F7409A40988EE38EBD0DB407FE2B
:101BC000FDCF20E030E0F901E45AF94F80818EBD6D
:101BD0000DB407FEFDCF2F5F3F4F2230310599F73F
:101BE000409A552399F040988EE38EBD0DB407FEC0
:101BF000FDCFE3E6F6E080818EBD0DB407FEFDCF9C
:101C0000319686E0E736F807B1F7409A40988EE3C0
:101C10008EBD0DB407FEFDCF20E030E00DC0F80111
:101C200083819481480F591FFA0180818EBD0DB4C4
:101C300007FEFDCF2F5F3F4F422F5527461757070F
:101C400074F3409A40988EE38EBD0DB407FC05C036
:101C5000FCCF0DB407FC94C0FCCFAEBDFACF809191
:101C60005E06882339F4409883E08EBD0DB407FEEC
:101C7000FDCF409A40981EBC0DB407FEFDCF8EB537
:101C8000409A81FFF7CF00E0409885E08EBD0DB40B
:101C900007FEFDCF409A40981EBC0DB407FEFDCF55
:101CA0001EB5409A0F5F053651F478948091510625
:101CB000909152060E94EA1D80E090E068C084E6A0
:101CC00090E00E94F01713FD08C0DECF409884E03A
:101CD0008EBD0DB407FEFDCF409A78944E9BFECF8B
:101CE0004E99FECF80916106882391F084EA92E0BC
:101CF0000E94F017319B0EC040988FE78EBD0DB447
:101D000007FEFDCF1EBC0DB407FEFDCF8EB5409A79
:101D100011E00FC0409888E08EBD0DB407FEFDCFE6
:101D2000409A409888E08EBD0DB407FEFDCF409AE2
:101D300010E0F894409886E08EBD0DB407FEFDCF0C
:101D4000409A7894809158068F5F809358068091CE
:101D50005106909152060E94EA1D812F992717C0C3
:101D6000409A81E498E89A83898380916106882368
:101D700009F0C9CECCCE409A40988EE38EBDF2CE0B
:101D8000409AF8018581882309F069CF9FCF229678
:101D90000FB6F894DEBF0FBECDBFDF91CF911F917C
:101DA0000F91FF90EF900895BF92CF92DF92EF9244
:101DB000FF920F931F93CF93DF93CDB7DEB7229798
:101DC0000FB6F894DEBF0FBECDBF8C016B017A0158
:101DD00080915106909152060E943C1F0E94462A13
:101DE000409888E08EBD0DB407FEFDCF409A409824
:101DF00088E08EBD0DB407FEFDCF409A6799FECFF7
:101E00004E99FCCFF894409889E08EBD0DB407FE42
:101E1000FDCF409A409889E08EBD0DB407FEFDCFFE
:101E2000409AF8016281462F552747FD5095BB2403
:101E300020E030E007C0F80183819481A80FB91F2A
:101E40008C91B80E822F2F5F3F4FA82FBB27A4176E
:101E5000B5078CF3962F945F40988EE38EBD0DB43A
:101E600007FC05C0FCCF0DB407FC16C1FCCF9EBD1E
:101E7000FACF81E698E89A83898340988EE38EBDF5
:101E80000DB407FEFDCFFE0131969E012D5F3F4F41
:101E900080818EBD0DB407FEFDCF3196E217F307AA
:101EA000B9F7409A40988EE38EBD0DB407FC05C08B
:101EB000FCCF0DB407FCF9C0FCCF809158068EBD55
:101EC000F8CF0DB407FEFDCF20E030E0F901E65A6F
:101ED000F94F80818EBD0DB407FEFDCF2F5F3F4FC0
:101EE0002230310599F7409A40988EE38EBD0DB4AB
:101EF00007FEFDCF20E030E0F801E20FF31F808104
:101F00008EBD0DB407FEFDCF2F5F3F4F2230310550
:101F100099F7409A40988EE38EBD0DB407FEFDCF31
:101F200020E030E0F901E45AF94F80818EBD0DB414
:101F300007FEFDCF2F5F3F4F2230310599F7409AC2
:101F4000B701C6010E94CB2AF80185818823C1F11F
:101F500080915E06882339F4409883E08EBD0DB4ED
:101F600007FEFDCF409A40981EBC0DB407FEFDCF82
:101F70008EB5409A81FFF7CFEE24409885E08EBD64
:101F80000DB407FEFDCF409A40981EBC0DB407FE6D
:101F9000FDCFFEB4409AE394F5E6EF1651F4789441
:101FA00080915106909152060E94EA1D80E090E0D7
:101FB00083C084E690E00E94F017F3FC08C0DDCFF8
:101FC000409884E08EBD0DB407FEFDCF409A409846
:101FD0008EE38EBD0DB407FEFDCFF8018281482F40
:101FE000552747FD509520E030E00CC0F801838173
:101FF0009481A80FB91F8C918EBD0DB407FEFDCF43
:102000002F5F3F4FA22FBB27A417B5077CF3409A41
:1020100040988EE38EBD0DB407FC05C0FCCF0DB417
:1020200007FC48C0FCCFBEBCFACF4E9BFECFF89455
:102030004E99FECF409888E08EBD0DB407FEFDCFCF
:10204000409A409888E08EBD0DB407FEFDCF409ABF
:10205000409889E08EBD0DB407FEFDCF409A4098B0
:1020600089E08EBD0DB407FEFDCF409A409886E012
:102070008EBD0DB407FEFDCF409A7894809158062E
:102080008F5F8093580680915106909152060E946E
:10209000EA1D81E090E010C0409AF8018681882313
:1020A00009F0E7CE81E498E8E6CE409A40988EE3C6
:1020B0008EBD07CF409AB9CF22960FB6F894DEBFF7
:1020C0000FBECDBFDF91CF911F910F91FF90EF9089
:1020D000DF90CF90BF900895CF93DF93CDB7DEB759
:1020E00022970FB6F894DEBF0FBECDBF9A838983C7
:1020F00090935D0680935C0684EF91E00E948029B6
:1021000040988AEE8EBD0DB407FEFDCF80E88EBDEF
:102110000DB407FEFDCFFE0131969E012D5F3F4FAE
:1021200080818EBD0DB407FEFDCF3196E217F30717
:10213000B9F7409A84EF91E00E94802922960FB669
:10214000F894DEBF0FBECDBFDF91CF9108956F929F
:102150007F928F929F92AF92BF92CF92DF92EF9237
:10216000FF920F931F93CF93DF93CDB7DEB72297E4
:102170000FB6F894DEBF0FBECDBF8C0184E690E0B1
:102180000E9480297801C12CB1E0DB2E3E01089429
:10219000611C711CA3E08A2E912C8C0E9D1EF701F0
:1021A0008081218133279927982F8827282B392B45
:1021B0003A83298384E690E00E94802940988C2D00
:1021C00080688EBD0DB407FEFDCFC601959587953D
:1021D000807C8EBD0DB407FEFDCF83015301F50158
:1021E00080818EBD0DB407FEFDCF0894A11CB11CEB
:1021F000A814B904A1F7409A0894E11CF11C82E0EC
:1022000090E0C80ED91E90E1C91691E0D90639F6C2
:1022100084E690E00E94802920E131E040E451E032
:102220001A8219824098842F80688EBD0DB407FEF3
:10223000FDCFCA0195958795807C8EBD0DB407FEB4
:10224000FDCFF80180818EBD0DB407FEFDCF319624
:10225000EA15FB05B9F7409A4098822F80688EBD39
:102260000DB407FEFDCFC90195958795807C8EBD85
:102270000DB407FEFDCFF80180818EBD0DB407FEC1
:10228000FDCF3196EA15FB05B9F7409A2E5F3F4F17
:102290004E5F5F4FE1E02E313E0711F681E090E0A6
:1022A0009A83898340988EEC8EBD0DB407FEFDCFD6
:1022B00080E88EBD0DB407FEFDCFF80180818EBD94
:1022C0000DB407FEFDCF3196EA15FB05B9F7409A2C
:1022D00040988EE98EBD0DB407FEFDCF80E88EBD1F
:1022E0000DB407FEFDCFF80180818EBD0DB407FE51
:1022F000FDCF0F5F1F4F0A151B05A9F7409A2296C5
:102300000FB6F894DEBF0FBECDBFDF91CF911F9106
:102310000F91FF90EF90DF90CF90BF90AF909F9084
:102320008F907F906F9008951F93CF93DF93EC0170
:10233000162F80915106909152060E943C1F4098A2
:1023400088E08EBD0DB407FEFDCF409A409888E02E
:102350008EBD0DB407FEFDCF409A812F0E9431083B
:10236000D0935706C093560680915106909152061D
:102370000E94EA1DDF91CF911F9108951F93182F9E
:1023800080915106909152060E943C1F812F0E941D
:10239000310880915106909152060E94EA1D1F91CA
:1023A0000895DF92EF92FF920F931F93CF93DF93E5
:1023B000CDB7DEB722970FB6F894DEBF0FBECDBF04
:1023C0008C01D62E5A83498379016AE081E00E940C
:1023D0006F1D9093520680935106892B31F40E9411
:1023E000B620682F8FE00E94A61B80915106909125
:1023F00052060E943C1F8F3F21F48CEC91E00E941A
:102400008F17159A88EE93E00E94F017169881E0D6
:1024100090E00E94F017169A84E690E00E94F01770
:10242000F894409881E08EBD0DB407FEFDCF409A30
:1024300082EE92E09093550680935406409881E195
:102440008EBD0DB407FEFDCF82E08EBD0DB407FE3C
:10245000FDCF82EE8EBD0DB407FEFDCF409A4098B1
:1024600082E18EBD0DB407FEFDCF85E08EBD0DB4BB
:1024700007FEFDCF1EBC0DB407FEFDCF409A40986D
:102480008CE18EBD0DB407FEFDCF1EBC0DB407FE62
:10249000FDCF8FE78EBD0DB407FEFDCF409A40986B
:1024A00089E18EBD0DB407FEFDCF81E08EBD0DB478
:1024B00007FEFDCF84EC8EBD0DB407FEFDCF409A24
:1024C000409887E18EBD0DB407FEFDCF8AE18EBD39
:1024D0000DB407FEFDCF86E58EBD0DB407FEFDCF22
:1024E000409A84EF91E00E948029409888EE8EBD4A
:1024F0000DB407FEFDCF80E88EBD0DB407FEFDCF05
:10250000FE0131969E012D5F3F4F80818EBD0DB43F
:1025100007FEFDCF3196E217F307B9F7409A84EF33
:1025200091E00E94802978948D2D0E943108789442
:10253000109357060093560689819A8190935B0603
:1025400080935A06F0925D06E0925C06109258065F
:1025500010925E060E94500880915106909152069A
:102560000E94EA1D8F3F39F48FE991E00E948F1796
:1025700082E00E94AB1A10926106109253061092EC
:10258000620622960FB6F894DEBF0FBECDBFDF9174
:10259000CF911F910F91FF90EF90DF9008952091C0
:1025A0007A0680916806281781F0E22FFF27E75905
:1025B000F94FE081822F8F5F80937A06803111F48A
:1025C00010927A068E2F992708958091C80087FF70
:1025D000FCCF8091C8008F778093C8008091CE0097
:1025E00099270895882351F48091C000992787FD89
:1025F00090958827990F881F99270895813019F0A1
:1026000080E090E0089520E030E090917A0680919B
:102610006806981711F021E030E0C901089585B7E8
:10262000806185BF86E084B987E085B981E087B99C
:1026300088B98CE38DB98BE08AB98EE38EB988E7CF
:1026400081B980E482B908950E940F1380E58CBDA2
:1026500081E08DBD08958F3F09F47FC0482F552735
:102660009A012770307022303105A9F123303105ED
:1026700044F42115310589F02130310509F06DC090
:102680001CC02430310509F446C0243031059CF1CA
:102690002530310509F061C04EC022B1A3E0569546
:1026A0004795AA95E1F781E090E002C0880F991F55
:1026B0004A95E2F7282B22B94DC085B1F3E0569533
:1026C0004795FA95E1F702C0220F331F4A95E2F7CA
:1026D000822B85B93FC028B1E3E056954795EA952E
:1026E000E1F781E090E002C0880F991F4A95E2F778
:1026F000282B28B92FC02BB173E0569547957A95B2
:10270000E1F781E090E002C0880F991F4A95E2F757
:10271000282B2BB91FC02EB163E0569547956A95BB
:10272000E1F781E090E002C0880F991F4A95E2F737
:10273000282B2EB90FC021B333E0569547953A9513
:10274000E1F781E090E002C0880F991F4A95E2F717
:10275000282B21BB81E090E008958FEF9FEF089533
:102760008F3F09F486C0482F55279A012770307093
:1027700022303105C1F12330310544F421153105F2
:1027800089F02130310509F074C01DC024303105B5
:1027900009F44BC024303105BCF12530310509F076
:1027A00068C054C022B173E0569547957A95E1F719
:1027B00081E090E002C0880F991F4A95E2F780956A
:1027C000822382B953C095B163E0569547956A95C7
:1027D000E1F702C0220F331F4A95E2F7822F80955E
:1027E000892385B943C028B133E0569547953A957A
:1027F000E1F781E090E002C0880F991F4A95E2F767
:102800008095822388B932C02BB193E056954795C5
:102810009A95E1F781E090E002C0880F991F4A95F0
:10282000E2F7809582238BB921C02EB183E05695C3
:1028300047958A95E1F781E090E002C0880F991FE3
:102840004A95E2F7809582238EB910C021B3B3E098
:1028500056954795BA95E1F781E090E002C0880F60
:10286000991F4A95E2F78095822381BB81E090E031
:1028700008958FEF9FEF08958F3FA9F1282F3327F9
:10288000C9018770907082309105A9F0833091055D
:102890002CF4009761F0019731F50BC0843091055D
:1028A00071F0843091054CF00597E9F40AC080B1CD
:1028B00009C083B107C086B105C089B103C08CB11E
:1028C00001C08FB19927E3E036952795EA95E1F7A6
:1028D00002C0959587952A95E2F7992787FD9095EF
:1028E0008170907008958FEF9FEF08958F3F09F4E6
:1028F00003C1282F3327A90147705070423051057A
:1029000009F45CC04330510544F44115510591F080
:102910004130510509F0F0C034C04430510509F48C
:102920009BC0443051050CF470C04530510509F08E
:10293000E3C0B9C080B1A90173E0569547957A9577
:10294000E1F79927042E02C0959587950A94E2F73E
:1029500080FD0BC022B181E090E002C0880F991F7A
:102960004A95E2F7282B22B9C4C022B181E090E059
:1029700002C0880F991F4A95E2F78095822382B999
:10298000B8C083B163E0369527956A95E1F799273A
:10299000022E02C0959587950A94E2F702C0440F73
:1029A000551F2A95E2F780FD03C085B1842B04C032
:1029B00095B1842F8095892385B99BC086B1A901E3
:1029C00093E0569547959A95E1F79927042E02C012
:1029D000959587950A94E2F780FD0BC028B181E0B8
:1029E00090E002C0880F991F4A95E2F7282B28B97A
:1029F00080C028B181E090E002C0880F991F4A95FD
:102A0000E2F78095822388B974C089B1A901B3E047
:102A100056954795BA95E1F79927042E02C09595EA
:102A200087950A94E2F780FD0BC02BB181E090E01E
:102A300002C0880F991F4A95E2F7282B2BB959C07D
:102A40002BB181E090E002C0880F991F4A95E2F710
:102A5000809582238BB94DC08CB1A901A3E0569516
:102A60004795AA95E1F79927042E02C09595879579
:102A70000A94E2F780FD0BC02EB181E090E002C025
:102A8000880F991F4A95E2F7282B2EB932C02EB134
:102A900081E090E002C0880F991F4A95E2F7809587
:102AA00082238EB926C08FB1A901F3E056954795D0
:102AB000FA95E1F79927042E02C0959587950A9417
:102AC000E2F780FD0BC021B381E090E002C0880FE7
:102AD000991F4A95E2F7282B21BB0BC021B381E057
:102AE00090E002C0880F991F4A95E2F780958223F3
:102AF00081BB81E090E008958FEF9FEF08958F3FB5
:102B000009F412C1482F5527662309F090C0CA0165
:102B1000877090708230910509F43EC08330910532
:102B20003CF4009789F08130910509F0FDC021C087
:102B30008430910509F454C0843091050CF43EC0F2
:102B4000059709F0F1C05EC031B1B3E056954795E5
:102B5000BA95E1F781E090E002C0880F991F4A958D
:102B6000E2F7282F2095232321B922B1822B82B9A5
:102B7000D8C024B1A3E056954795AA95E1F702C0C5
:102B8000880F991F4A95E2F7982F8095822384B980
:102B900085B1982B95B9C5C037B1F3E056954795E7
:102BA000FA95E1F781E090E002C0880F991F4A95FD
:102BB000E2F7282F2095232327B935C03AB1E3E067
:102BC00056954795EA95E1F781E090E002C0880FBD
:102BD000991F4A95E2F7282F209523232AB923C06D
:102BE0003DB173E0569547957A95E1F781E090E025
:102BF00002C0880F991F4A95E2F7282F20952323BA
:102C00002DB911C030B363E0569547956A95E1F749
:102C100081E090E002C0880F991F4A95E2F7282FC3
:102C20002095232320BB25B1822B85B97AC09A0138
:102C30002770307022303105A9F12330310544F47A
:102C40002115310589F02130310509F06DC01CC016
:102C50002430310509F446C0243031059CF125307B
:102C6000310509F061C04EC021B133E0569547955A
:102C70003A95E1F781E090E002C0880F991F4A95EC
:102C8000E2F7282B21B94DC084B193E056954795C2
:102C90009A95E1F702C0220F331F4A95E2F7822B83
:102CA00084B93FC027B1B3E056954795BA95E1F78F
:102CB00081E090E002C0880F991F4A95E2F7282B27
:102CC00027B92FC02AB1A3E056954795AA95E1F7F9
:102CD00081E090E002C0880F991F4A95E2F7282B07
:102CE0002AB91FC02DB1F3E056954795FA95E1F743
:102CF00081E090E002C0880F991F4A95E2F7282BE7
:102D00002DB90FC020B3E3E056954795EA95E1F75A
:102D100081E090E002C0880F991F4A95E2F7282BC6
:102D200020BB81E090E008958FEF9FEF0895882306
:102D300019F08FEF9FEF089580B1992787FD909547
:102D4000809590958827990F881F99270895009757
:102D500011F484E109C08130910511F48CE104C0C3
:102D60008230910531F484E20E94761481E090E093
:102D70000895039719F08FEF9FEF08958CE20E945A
:102D8000761481E090E00895009711F484E109C081
:102D90008130910511F48CE104C08230910531F449
:102DA00084E20E942B1381E090E00895039719F0CC
:102DB0008FEF9FEF08958CE20E942B1381E090E04B
:102DC0000895009711F484E109C08130910511F450
:102DD0008CE104C08230910531F484E20E94B0138A
:102DE00081E090E00895039719F08FEF9FEF089529
:102DF0008CE20E94B01381E090E00895882319F0DE
:102E000085B78F7E02C085B7806185BF81E090E085
:102E10000895982F8091C00085FFFCCF8091C0005D
:102E20008F7D8093C0009093C6000895982F809165
:102E3000C80085FFFCCF9093CE000895292F33273B
:102E40002093C5008093C40086E08093C200E1EC2B
:102E5000F0E080818B7F8083A0ECB0E08C91826079
:102E60008C938081886180830895292F3327209354
:102E7000CD008093CC0086E08093CA00E9ECF0E0BE
:102E800080818B7F8083A8ECB0E08C9182608C93F2
:102E900080818861808308958091C00087FFFCCF86
:102EA0008091C0008F778093C0008091C6009927E1
:102EB00008950E9435176FEC72E186E197E10E9458
:102EC0005F2F9093A00780939F076FEC72E186E1DC
:102ED00097E10E945F2F90939E0780939D070E9429
:102EE000AD1C809379068F3F19F48EE00E94AD1BD4
:102EF00010927A06109268068091C90080688093CB
:102F0000C9000895809179068F3F19F48EE00E94E0
:102F1000AD1B80917906992787FD90950895CF93F1
:102F2000DF93EC0107C060919F077091A00799277C
:102F30000E94AD2FFE01219684918823A1F7DF9195
:102F4000CF9108951F920F920FB60F9211242F93D5
:102F50003F934F935F936F937F938F939F93AF9321
:102F6000BF93EF93FF938091C9008F778093C9003F
:102F70008091C80087FFFCCF8091C8008F77809335
:102F8000C8009091CE0080916806E82FFF27E7598E
:102F9000F94F90838F5F80936806803111F410920F
:102FA0006806809179060E943E1E8091C8008F7746
:102FB0008093C8008091C90080688093C900FF9108
:102FC000EF91BF91AF919F918F917F916F915F91A1
:102FD0004F913F912F910F900FBE0F901F9018951A
:102FE00000000000000000000197D1F70895FC01E7
:102FF000A7E0B0E00E946732802D808381E090E0FE
:103000000895FC018081A7E0B0E0082E0E946F3295
:1030100081E090E00895DC010E946732802D9927BD
:103020000895FC01A0E0B0E00E946732402D438388
:10303000A1E0B0E00E946732802D8283A2E0B0E080
:103040000E946732302D3183A3E0B0E00E946732E6
:10305000902D9083A4E0B0E00E946732202D830F72
:10306000840F890F281719F481E090E008958FEFFD
:103070009FEF0895FC01A5E0B0E00E946732802D2B
:10308000808381E090E00895FC01A6E0B0E00E941A
:103090006732802D808381E090E00895AC0120E0CC
:1030A00030E0D90118960E946732802DFA01E20FB4
:1030B000F31F80832F5F3F4F2031310591F781E06F
:1030C00090E00895DC01062E0E946F320895FC0105
:1030D0008081A6E0B0E0082E0E946F3281E090E08F
:1030E0000895AC0120E030E0D9011896FA01E20F12
:1030F000F31F8081082E0E946F322F5F3F4F2031D7
:10310000310591F781E090E00895F894089578945E
:10311000089585E690E008950E940E260895EF92A6
:10312000FF920F931F93CF93DF93EC018B017A01F2
:103130008985823021F080910907888301C0188237
:1031400080910907843020F060E087E00E94A61B90
:103150008985823029F0809109078F5F8093090764
:1031600080910907882319F481E0809309078881F9
:10317000992787FD9095FC0145E0EE0FFF1F4A95CA
:10318000E1F7E80FF91FE358F94F118300838881B5
:10319000992787FD9095FC0135E0EE0FFF1F3A95CA
:1031A000E1F7E80FF91FE358F94F88858287888196
:1031B000992787FD9095FC0125E0EE0FFF1F2A95CA
:1031C000E1F7E80FF91FE358F94F83E08187288181
:1031D000822F992787FD9095FC0105E0EE0FFF1FD8
:1031E0000A95E1F7E80FF91FE358F94F2087888126
:1031F000992787FD9095FC0115E0EE0FFF1F1A95AA
:10320000E1F7E80FF91FE358F94F158208811127FC
:1032100007FD10952B853C854D855E856F857889EA
:1032200089899A890E942924F801B5E0EE0FFF1FD1
:10323000BA95E1F7E00FF11FE358F94F948F838FB0
:103240000881112707FD10952B8D3C8D4D8D5E8DCE
:103250006F8D78A189A19AA10E942924F801A5E087
:10326000EE0FFF1FAA95E1F7E00FF11FE358F94FAA
:10327000968B858B8881992787FD9095FC0175E059
:10328000EE0FFF1F7A95E1F7E80FF91FE358F94FAA
:1032900085899689238D348D820F931F908F878B1C
:1032A0000881112707FD10952B893C894D895E897E
:1032B0006F89788D898D9A8D0E942924F80165E0A7
:1032C000EE0FFF1F6A95E1F7E00FF11FE358F94F8A
:1032D000968F858F8881992787FD9095FC0155E011
:1032E000EE0FFF1F5A95E1F7E80FF91FE358F94F6A
:1032F000858D968D928F818F8881992787FD9095F6
:10330000FC0145E0EE0FFF1F4A95E1F7E80FF91FBA
:10331000E358F94F81E090E090A3878F8881992747
:1033200087FD9095FC0135E0EE0FFF1F3A95E1F720
:10333000E80FF91FE358F94FF382E2828881992759
:1033400087FD9095FC0125E0EE0FFF1F2A95E1F720
:10335000E80FF91FE358F94F81E0848781E090E09E
:10336000DF91CF911F910F91FF90EF9008958F9271
:103370009F92AF92BF92CF92DF92EF92FF920F9304
:103380001F93CF93DF9365E8A62E66E0B62ECC247C
:10339000DD244501EC2CF501F080FFEFFF1691F0E4
:1033A000E40100E010E0E01639F08881F81621F41D
:1033B0006F2D85E00E94A61B0F5F1F4FA196043062
:1033C000110589F70894C11CD11C81E290E0A80E78
:1033D000B91E94E0C916D104E9F60E94CB1F282F2C
:1033E000332727FD3095F90155E0EE0FFF1F5A9561
:1033F000E1F7E20FF31FE358F94F328530931C07D2
:1034000021E28202C00111248358994F90931B0737
:1034100080931A0790930C0780930B0730930D0746
:103420000E946E2D0E94542D0E94922DFFCF0F936B
:103430001F93CF93DF93CDB7DEB7A3970FB6F89462
:10344000DEBF0FBECDBF0E94AD1C80930A078F3F29
:1034500021F460E08EE00E94A61B0E94C52C882308
:1034600021F460E086E00E94A61B10920D071092E6
:103470001B0710921A0710920C0710920B0710925C
:103480001C070E940628109219078FEF80930307EC
:1034900080930507809304078093060780930807AD
:1034A00080930707EDE7F6E083E682878FEF80875A
:1034B000B19627E0E130F207B9F7EDE1F7E0CF018F
:1034C000059694838383F783E683FC0127E08133A9
:1034D0009207A9F710921F0710921E071092350746
:1034E000109234071092100710920F074497909390
:1034F0007C0680937B066AEE75E28E010F5F1F4F9C
:10350000C8010E94122D40E850E06DEB75E0C80143
:103510000E94732D85E58093BD0519861C8E1D8E36
:103520001E8E1F8E18A219A21AA21BA291E09887C4
:1035300082E08A879B87C8010E94B422A3960FB6B7
:10354000F894DEBF0FBECDBFDF91CF911F910F91D9
:103550000895F894FFCFE0911A07F0911B07848734
:103560000895E0911A07F0911B0784859927089523
:10357000DC01FB018091BC05882319F480E090E018
:103580000895808380914B038C9381E090E00895AF
:103590002F923F924F925F926F927F928F929F9263
:1035A000AF92BF92CF92DF92EF92FF921F93CF9391
:1035B000DF938091BC05882309F4B4C00E9485186C
:1035C0000E94851860EF262E62E0362E53E0452ECD
:1035D00053E0552E46E1642E43E0742E3EE2832EE6
:1035E00033E0932E24E4A22E23E0B22E9FE5C92ED1
:1035F00093E0D92E85E7E82E83E0F82EC9E8D3E0E2
:1036000084EB93E00E948F1780914B0399279F933F
:103610008F938EE592E09F938F930E94DA2F80EB39
:1036200093E00E948F170F900F900F900F90809152
:10363000BC05843110F01092BC058091BC0599271F
:10364000AA27BB27FC013197E231F105B0F5EA5911
:10365000FF4FEE0FFF1F0590F491E02D0994CE016E
:103660002EC0C7012CC0C6012AC0C50128C0C40194
:1036700026C0C30124C0C20122C0C10120C082ED06
:1036800092E01DC08DEA92E01AC081EA92E017C074
:1036900086E892E014C087E792E011C086E692E0E7
:1036A0000EC082E592E00BC082E392E008C08AE19E
:1036B00092E005C08FEF91E002C088EF91E00E9498
:1036C0008F1760919F077091A0078DE090E00E9496
:1036D000AD2F60919F077091A0078AE090E00E9453
:1036E000AD2F82E090E00E94E11683E090E00E941E
:1036F000C41610E088EE93E00E9480291F5F143604
:10370000C9F783E090E00E94E11682E090E00E9419
:10371000C41610E088EE93E00E9480291F5F1436E3
:10372000C9F76ECF80E090E0DF91CF911F91FF90BD
:10373000EF90DF90CF90BF90AF909F908F907F9051
:103740006F905F904F903F902F9008958093BC05AD
:1037500060934B030E94C81A08958093BC05E091C2
:103760001A07F0911B07808580934B030E94C81AAB
:103770000895992787FD9095FC0125E0EE0FFF1F26
:103780002A95E1F7E80FF91FE358F94FA281B381B9
:103790008C91853529F085E58C938FEF9FEF089507
:1037A000808191818050924218F481E090E00895E8
:1037B00082E10E94AD1B8FEF9FEF08956F927F9281
:1037C0008F929F92AF92BF92CF92DF92EF92FF9231
:1037D0000F931F93CF93DF9380EC93E00E948F179A
:1037E000E0911A07F0911B078085992787FD909536
:1037F0009F938F9381E692E09F938F930E94DA2F9D
:10380000E0911A07F0911B07028113811F930F9318
:103810008AE692E09F938F930E94DA2FF8018081CD
:1038200099279F938F9357E7C52E52E0D52EDF92AD
:10383000CF920E94DA2FE0911A07F0911B07808146
:1038400091819F938F9344E8E42E42E0F42EFF92FF
:10385000EF920E94DA2F80911A0790911B079F9395
:103860008F930EE812E01F930F930E94DA2FCDE79B
:10387000D6E0AA24BB248DB79EB744960FB6F89421
:103880009EBF0FBE8DBF3EE9632E32E0732E460110
:10389000670178010A811B811F930F93BF92AF923A
:1038A0007F926F920E94DA2FF801808199279F936F
:1038B0008F939F928F920E94DA2F888199819F9394
:1038C0008F93DF92CF920E94DA2FDF93CF93FF92F4
:1038D000EF920E94DA2F0894A11CB11CA1968DB71B
:1038E0009EB742960FB6F8949EBF0FBE8DBF94E070
:1038F000A916B10479F6DF91CF911F910F91FF9036
:10390000EF90DF90CF90BF90AF909F908F907F907F
:103910006F900895CF93DF93E0911A07F0911B0702
:10392000C281D3818881853539F00E94DE1B81E018
:103930000E94AD1B85E58883E0911A07F0911B0773
:10394000808191818050924228F00E94DE1B82E1AA
:103950000E94AD1BDF91CF9108954091F8035091E3
:10396000F9036091FA037091FB0320E030E0DB0182
:10397000CA01022E04C0B695A795979587950A941B
:10398000D2F781709070892BE9F481E090E0A0E09B
:10399000B0E0022E04C0880F991FAA1FBB1F0A9413
:1039A000D2F7842B952BA62BB72B8093F8039093FB
:1039B000F903A093FA03B093FB03822F992787FDA5
:1039C000909508952F5F3F4F2032310581F68FEF9C
:1039D0009FEF0895E0911A07F0911B0765857685A2
:1039E000878590890895EF92FF920F931F9321E0AE
:1039F00030E040E050E004C0220F331F441F551F49
:103A00008A95D2F7E0911A07F0911B07E584F684B6
:103A100007851089DA01C9018E219F21A023B123D6
:103A20000097A105B10519F48FEF9FEF1AC02095FB
:103A3000309540955095E222F32204231523E58624
:103A4000F6860787108B81899289A389B48982239E
:103A50009323A423B523818B928BA38BB48B81E01A
:103A600090E01F910F91FF90EF900895682F7727B6
:103A700067FD70958091F8039091F903A091FA0386
:103A8000B091FB03062E04C0B695A7959795879530
:103A90000A94D2F781709070892B19F48FEF9FEF01
:103AA0000895E0911A07F0911B0721E030E040E013
:103AB00050E004C0220F331F441F551F6A95D2F7F0
:103AC00085859685A785B089822B932BA42BB52B52
:103AD00085879687A787B08B81E090E00895382F7F
:103AE00080911907882319F080E090E00895809173
:103AF00003078F3F11F420E007C0809106078F3F36
:103B000011F022E001C021E0822F9927FC01EE0F85
:103B1000FF1FE80FF91FED5FF84F32833083618399
:103B200081E08093190783E0289FC00111248D5FF5
:103B3000984F089527E08330920711F480E007C082
:103B40008650974019F08FEF9FEF089581E09927F5
:103B500087FD909508950E949A1D8F3F11F481E092
:103B600002C0823029F40E94AB1A8FEF9FEF0895B4
:103B7000992787FD9095FC01EE0FFF1FE80FF91FB5
:103B8000ED5FF84F8FEF80838283818380911907E7
:103B900081508093190781E090E008950E949A1D5A
:103BA0008F3F11F481E002C0823029F40E94AB1AE9
:103BB0008FEF9FEF0895992787FD9095FC01EE0FF9
:103BC000FF1FE80FF91FED5FF84F8281992787FDEE
:103BD000909508951F93CF93DF930E949A1D182FFD
:103BE0008F3F11F481E003C0823031F482E00E9403
:103BF000AB1A8FEF9FEF3EC0992787FD9095EC01A0
:103C0000CC0FDD1FC80FD91FCD5FD84F9A81888197
:103C1000981774F50E9485188A818F5F8A83E091D6
:103C20001A07F0911B071482E4E8F6E0212F3327EE
:103C300027FD3095432F532F8081823091F4828568
:103C40009385A485B58582179307A407B50749F422
:103C500083E0828317861686108212861386148666
:103C60001586B19687E0E830F80731F70E9487188B
:103C700081E090E0DF91CF911F910895DF92EF9264
:103C8000FF920F931F93E1E0EE2EF12C012D112DE9
:103C900004C0EE0CFF1C001F111F8A95D2F7809103
:103CA000F8039091F903A091FA03B091FB038E21E0
:103CB0009F21A023B1230097A105B10511F481E054
:103CC00043C00E948518E4E8F6E0DD24808181305D
:103CD000B9F482859385A485B5858E219F21A02383
:103CE000B1230097A105B10559F083E082831786BF
:103CF00016861082E286F38604871587DD24D39426
:103D000080818230A1F482859385A485B5858E1546
:103D10009F05A007B10759F483E0828317861686B2
:103D200010821286138614861586DD24D394B196EC
:103D300087E0E830F80751F60E948718DD2019F077
:103D400081E090E005C082E00E94AB1A8FEF9FEF08
:103D50001F910F91FF90EF90DF900895EF92FF92E7
:103D60000F931F93CF93DF93C82FDD27C7FDD09507
:103D7000F1E0EF2EF12C012D112D0C2E04C0EE0CD4
:103D8000FF1C001F111F0A94D2F78091F803909135
:103D9000F903A091FA03B091FB038E219F21A02388
:103DA000B1230097A105B10519F48FEF9FEF5DC016
:103DB0000E948518EDE7F6E0A8019701209530955F
:103DC0004095509580858F3F41F185859685A785E3
:103DD000B0898E159F05A007B10739F4118A128AA0
:103DE000138A148A178283E0818785859685A78543
:103DF000B08982239323A423B52385879687A78739
:103E0000B08B81899289A389B48982239323A423C7
:103E1000B523818B928BA38BB48BB19687E0E13075
:103E2000F80781F62EEF3FEF4FEF5FEF04C0220F50
:103E3000331F441F551FCA95D2F78091F803909104
:103E4000F903A091FA03B091FB0382239323A423E7
:103E5000B5238093F8039093F903A093FA03B093EA
:103E6000FB030E94871881E090E0DF91CF911F91C2
:103E70000F91FF90EF9008951F93CF93DF930E94CF
:103E80009A1D182F8F3F11F481E003C0823031F466
:103E900082E00E94AB1A8FEF9FEF3EC00E94851810
:103EA000812F992787FD9095EC01CC0FDD1FC80F5E
:103EB000D91FCD5FD84F8A818823D9F4E0911A07A2
:103EC000F0911B07878182608783E0911A07F09148
:103ED0001B07812F992787FD9095A92FB92F818BDB
:103EE000928BA38BB48B0E94871880E090E00E9495
:103EF000E1218A8181508A83E0911A07F0911B07A2
:103F000089818387E0911A07F0911B0781E0848300
:103F10000E94871881E090E0DF91CF911F91089572
:103F20009B01AC01E0911A07F0911B0785859685EE
:103F3000A785B08982239323A423B5230097A105E5
:103F4000B10529F460E070E080E090E00895218BF5
:103F5000328B438B548B81E0878300900A0704C027
:103F600056954795379527950A94D2F7C9018170E0
:103F70009070892B19F00E947C2104C080E090E0B1
:103F80000E94E121E0911A07F0911B076189728973
:103F9000838994890895E0910F07F091100780813B
:103FA00099270895E0910F07F091100703C003804F
:103FB000F481E02D3097D9F70895CF93DF93482F00
:103FC000C0917B06D0917C06209709F47AC0A0911D
:103FD0000F07B09110071097B9F1992787FD9095B9
:103FE0009C0165E0220F331F6A95E1F7280F391F06
:103FF0002358394F8C919927BC0155E0660F771FE4
:104000005A95E1F7680F791F6358794FFB01848156
:10401000882329F09385F90182859817A8F0F90182
:104020008481882331F0FB019285F90183859817FB
:1040300058F0FB019285F9018285981728F0FD015F
:10404000A381B4811097B1F64883E0917B06F0918B
:104050007C062381348130937C0620937B068091FB
:104060000F0790911007A817B907A1F4109731F026
:10407000BC83AB831A821982FD0105C01C821B829E
:104080001A821982F901D283C183D0931007C09399
:104090000F0717C0FD0181819281A217B30751F06C
:1040A0009A838983BC83AB8381819281FC01D48311
:1040B000C38304C01C821B829A838983FD01D2833F
:1040C000C183DF91CF910895CF93DF93A0910F0724
:1040D000B0911007109709F446C0482F552747FDA7
:1040E00050958C9199278417950769F4ED01EB8120
:1040F000FC81F0931007E0930F071282118216C023
:10410000D901232B81F18C919927FD0123813481E1
:1041100084179507A9F7C181D2813C832B838381C2
:104120009481009719F0FC01D283C183E0917B0652
:10413000F0917C06309741F4B0937C06A0937B0607
:10414000ED011C821B8209C0ED01FC83EB83B2836D
:10415000A183B0937C06A0937B06E0917B06F0914F
:104160007C0612821182DF91CF910895E0911A07A7
:10417000F0911B078085992708950E94072DE091F3
:104180001A07F0911B0785818823B9F70895FF92DC
:104190000F931F93CF93DF93CDB7DEB728970FB65A
:1041A000F894DEBF0FBECDBF29833A834B835C8377
:1041B0006D837E838F8398870E948A1C0E94851856
:1041C000E0911A07F0911B0781E0858381E090E080
:1041D00090A3878F0E94462AF82E29813A814B812D
:1041E0005C816D817E818F8198850E942924E09178
:1041F0001A07F0911B070F2D1127800F911F968B27
:10420000858B87EF8F1570F00E94D2290E5F1F4FAC
:1042100099278017910734F08F2D8E5F8093B20518
:104220000E94D7290E9487180E94BD2081E090E05B
:1042300028960FB6F894DEBF0FBECDBFDF91CF91A9
:104240001F910F91FF9008958F929F92AF92BF920E
:10425000CF92DF92EF92FF920F931F93CF93DF9352
:10426000CDB7DEB760970FB6F894DEBF0FBECDBFF7
:1042700029873A874B875C876D877E878F87988BE6
:10428000CE0101960E948F2589809A80AB80BC80E8
:10429000CD80DE80EF80F88409851A852B853C85EA
:1042A0004D855E856F857889CE0109960E940A2327
:1042B000882319F48FEF9FEF0CC029853A854B8531
:1042C0005C856D857E858F8598890E94C72081E0F9
:1042D00090E060960FB6F894DEBF0FBECDBFDF91C1
:1042E000CF911F910F91FF90EF90DF90CF90BF90F3
:1042F000AF909F908F9008951F930E948518E09132
:104300001A07F0911B0781E0858386830E94462A65
:10431000182F883F80F40E94D229212F33272E5F47
:104320003F4F99278217930734F0812F8E5F809338
:10433000B2050E94D7290E9487180E94BD2081E003
:1043400090E01F9108951F93CF93DF93CDB7DEB711
:1043500028970FB6F894DEBF0FBECDBF29833A83EE
:104360004B835C836D837E838F8398870E9485183F
:104370000E94462A182F29813A814B815C816D81E8
:104380007E818F8198850E9429248330910518F4BD
:104390008FEF9FEF0CC0E0911A07F0911B07810F80
:1043A000911D968B858B0E94871881E090E028965E
:1043B0000FB6F894DEBF0FBECDBFDF91CF911F9136
:1043C00008950F931F938C010E948518E0911A079E
:1043D000F0911B0781E08583168B058B0E94462A8E
:1043E000082F883F80F40E94D229202F33272E5F88
:1043F0003F4F99278217930734F0802F8E5F809369
:10440000B2050E94D7290E9487180E94BD2081E032
:1044100090E01F910F910895FF920F931F93CF93F8
:10442000DF938C010E948518E0911A07F0911B0719
:1044300081E085830E94462AF82EE0911A07F091C8
:104440001B07C82FDD270C0F1D1F168B058B87EF51
:104450008F1568F00E94D229229699278C179D0704
:1044600034F08F2D8E5F8093B2050E94D7290E9471
:1044700087180E94BD2081E090E0DF91CF911F91CD
:104480000F91FF9008951F93CF93DF93EC010E944B
:104490008A1C209711F4C1E0D0E00E948518E091B9
:1044A0001A07F0911B0781E08583D0A3C78F0E9474
:1044B000462A182F883F80F40E94D229212F3327C3
:1044C0002E5F3F4F99278217930734F0812F8E5F1D
:1044D0008093B2050E94D7290E9487180E94BD20B0
:1044E00081E090E0DF91CF911F9108951F930E948A
:1044F0008A1C0E948518E0911A07F0911B0781E041
:1045000090E090A3878F81E085830E94462A182F30
:10451000883F80F40E94D229212F33272E5F3F4FFE
:1045200099278217930734F0812F8E5F8093B2050D
:104530000E94D7290E9487180E94BD2081E090E048
:104540001F910895E0911A07F0911B0780850E9442
:104550006420E0911A07F0911B0784E081870E9494
:10456000762281E090E00895EF92FF920F931F93DF
:10457000CF93DF93EC014B815C8169817A818D81DE
:104580009E810E94162DBC018F81882369F04B818A
:104590005C81EE24FF2400E010E020E030E0CE015A
:1045A0000E948F181F8216C08881992787FD9095D9
:1045B000FC01A5E0EE0FFF1FAA95E1F7E80FF91F38
:1045C000E358F94F8185833019F08FEF9FEF1BC0BF
:1045D000718360838881992787FD9095FC0175E040
:1045E000EE0FFF1F7A95E1F7E80FF91FE358F94F37
:1045F00085899689892B29F482E0818788810E94A8
:10460000DD1F81E090E0DF91CF911F910F91FF902E
:10461000EF9008958F929F92AF92BF92CF92DF92C8
:10462000EF92FF920F931F93CF93DF93CDB7DEB737
:1046300060970FB6F894DEBF0FBECDBFFC010983B3
:104640001A832B833C834D835E836F8378878986AF
:104650009A86AB86BC86CD86DE86EF86F88A2D816B
:104660003E814F81588589819A81AB81BC81AD841F
:10467000BE84CF84D888E984FA840B851C858E1586
:104680009F05A007B10708F43FC0E816F9060A071E
:104690001B0791F42A153B054C055D05A8F12A1965
:1046A0003B094C095D092483358346835783108277
:1046B0001182128213821CC02A153B054C055D0530
:1046C000D0F40197A109B1098E199F09A00BB10B74
:1046D00080839183A283B383205036434546544C54
:1046E0002A193B094C095D09248335834683578386
:1046F00081E090E00BC08E199F09A00BB10B808365
:104700009183A283B383ECCF80E090E060960FB6F4
:10471000F894DEBF0FBECDBFDF91CF911F910F91F7
:10472000FF90EF90DF90CF90BF90AF909F908F90D1
:104730000895FC0113C080509A4CAA49BB4384835E
:104740009583A683B78380819181A281B3810196ED
:10475000A11DB11D80839183A283B3838481958140
:10476000A681B78180302AEC92072AE9A2072BE3C1
:10477000B20708F708958F929F92AF92BF92CF929F
:10478000DF92EF92FF920F931F93CF93DF93CDB7FA
:10479000DEB760970FB6F894DEBF0FBECDBFFC0149
:1047A00009831A832B833C834D835E836F837887D1
:1047B00089869A86AB86BC86CD86DE86EF86F88AA9
:1047C000AD80BE80CF80D884ED84FE840F851889AB
:1047D00089859A85AB85BC8529813A814B815C812D
:1047E000820F931FA41FB51F80839183A283B3837D
:1047F000EA0CFB1C0C1D1D1DE482F5820683178349
:10480000CF010E94992381E090E060960FB6F89462
:10481000DEBF0FBECDBFDF91CF911F910F91FF90F3
:10482000EF90DF90CF90BF90AF909F908F900895C2
:1048300060931107709312078093130790931407E6
:1048400020931507309316074093170750931807C6
:1048500008958F929F92AF92BF92CF92DF92EF9284
:10486000FF920F931F93CF93DF93CDB7DEB72897B7
:104870000FB6F894DEBF0FBECDBF29833A834B83BA
:104880005C836D837E838F8398878D809E80AF80CD
:10489000B884E980FA800B811C81E114F1040105E0
:1048A000110501F180E09AECAAE9BBE3880E991E9C
:1048B000AA1EBB1EC501B40123EB36EE4EE050E04C
:1048C0000E940E3269010894E108F10801091109FA
:1048D0008AE0EE0CFF1C001F111F8A95D1F7CE0C49
:1048E000DF1C09C0C501B40123EB36EE4EE050E0F9
:1048F0000E940E326901B60102C06050744094E01B
:1049000061307907D0F78827992723EB36EE4EE000
:1049100050E00E94C831675A7C48884F9F4F681505
:1049200079058A059B0518F40894C11CD11CC601A1
:1049300028960FB6F894DEBF0FBECDBFDF91CF91A2
:104940001F910F91FF90EF90DF90CF90BF90AF90AD
:104950009F908F9008952F923F924F925F926F9207
:104960007F928F929F92AF92BF92CF92DF92EF92FF
:10497000FF920F931F93CF93DF93CDB7DEB72897A6
:104980000FB6F894DEBF0FBECDBF7B018C017370F4
:104990008070907023EB36EE4EE050E00E94C831FC
:1049A0006D837E838F8398879AE016950795F79499
:1049B000E7949A95D1F7E982FA820B831C83988554
:1049C00029803A804B805C806D807E808F80222D94
:1049D000332D442D552D662D772D882D28960FB615
:1049E000F894DEBF0FBECDBFDF91CF911F910F9125
:1049F000FF90EF90DF90CF90BF90AF909F908F90FF
:104A00007F906F905F904F903F902F900895AF925E
:104A1000BF92CF92DF92EF92FF920F931F93CF93AB
:104A2000DF93CDB7DEB728970FB6F894DEBF0FBE81
:104A3000CDBF29833A834B835C836D837E838F83D1
:104A40009887AD80BE80CF80D884E980FA800B81C2
:104A50001C81E114F1040105110509F180E09AECD3
:104A6000AAE9BBE3A80EB91ECA1EDB1EC601B5012A
:104A700023EB36EE4EE050E00E940E320894E1083F
:104A8000F108010911096AE0EE0CFF1C001F111F5B
:104A90006A95D1F7E20EF31E041F151F0AC0C60166
:104AA000B50123EB36EE4EE050E00E940E32790164
:104AB0008A01C801B70104C0605074408040904032
:104AC0006130A4E07A07A0E08A07A0E09A07A0F787
:104AD00023EB36EE4EE050E00E94C831675A7C4826
:104AE000884F9F4F6A157B058C059D0528F4089417
:104AF000E11CF11C011D111DC801B70128960FB65C
:104B0000F894DEBF0FBECDBFDF91CF911F910F9103
:104B1000FF90EF90DF90CF90BF90AF900895EF920D
:104B2000FF920F931F93CF93DF93EC0180911107B6
:104B300090911207A0911307B0911407888399836D
:104B4000AA83BB83E0901507F09016070091170722
:104B500010911807EC82FD820E831F830E94462A63
:104B60009927AA27BB27BC01CD0123EB36EE4EE0E7
:104B700050E00E94C831E60EF71E081F191FEC8294
:104B8000FD820E831F8313C080509A4CAA49BB43F9
:104B90008C839D83AE83BF8388819981AA81BB81E9
:104BA0000196A11DB11D88839983AA83BB838C8143
:104BB0009D81AE81BF8180302AEC92072AE9A2074D
:104BC0002BE3B20708F7DF91CF911F910F91FF9070
:104BD000EF9008950E948A1C0E94D2298B3030F4F5
:104BE00081E080930E070E94072D09C08AE090E0C3
:104BF0000E94802982E080930E070E94FB2C809106
:104C0000BD05853519F088E00E94AD1B8091FE201E
:104C1000853501F388E00E94AD1BDCCF8F929F9217
:104C2000AF92BF92CF92DF92EF92FF920F931F93BA
:104C3000CF93DF930E9485180E948E290E949629A7
:104C40004C018AEF0E94D7296091B2057727882707
:104C5000992723EB36EE4EE050E00E94C8317B01ED
:104C60008C018091150790911607A0911707B091BC
:104C70001807E80EF91E0A1F1B1FC801B7010E9482
:104C80000E32A8019701261B370B480B590B809158
:104C9000110790911207A0911307B09114071BC040
:104CA000E12C66E3F62E65E6062F64EC162FE20E85
:104CB000F31E041F151FC801B70123EB36EE4EE0AB
:104CC00050E00E940E32A8019701261B370B480BBB
:104CD000590BD601C5015C016D010894A11CB11CE2
:104CE000C11CD11C20306AEC36076AE946076BE329
:104CF0005607B0F68093110790931207A0931307FD
:104D0000B0931407209315073093160740931707A5
:104D100050931807E0911A07F0911B0785818823AB
:104D200019F18185843001F18781823029F088234F
:104D300041F08681882311F485E001C083E08187FA
:104D40000CC083E08187E0911A07F0911B0717825E
:104D5000E0911A07F0911B071682E0911A07F09173
:104D60001B0780850E946420E0911A07F0911B07C1
:104D7000858D968D892B91F16085662379F18185EA
:104D8000843061F1218D328D8091B20599272817E9
:104D9000390750F482E00E94A61BE0911A07F091B7
:104DA0001B07128E118E04C0281B390B328F218FE6
:104DB000E0911A07F0911B071085818D928D892B48
:104DC00069F4612F83E00E94A61BE0911A07F0911D
:104DD0001B0783E08187812F0E946420CDE7D6E006
:104DE00000E61AEECC24DD244C2D88858F3F09F493
:104DF00089C01D82882391F18985843079F12D89BC
:104E00003E898091B20599272817390728F0281B79
:104E1000390B3E8B2D8B02C01E8A1D8A2F89388D3F
:104E20002817390728F0281B390B388F2F8B0EC015
:104E30006B8D7C8D8617970728F4681B790B788F0C
:104E40006F8B04C00E94E731988F8F8B8F89988D6C
:104E5000892B21F48B8D9C8D988F8F8B8985833046
:104E600009F050C08D899E89892B09F043C08F813C
:104E70008823A1F08E81882389F081E090E0A0E072
:104E8000B0E000900A0704C0880F991FAA1FBB1F3B
:104E90000A94D2F7898B9A8BAB8BBC8B1F821E82B4
:104EA0001D822F8D38A18D8D9E8D2130310561F4AD
:104EB0009A8F898F82E089878F89988D9E8B8D8BC1
:104EC000842F0E94DD1F16C09A8F898F2150304099
:104ED0008B8D9C8DAC01249FC001259F900D349F2C
:104EE000900D11249E8B8D8B988F8F8B81E090E09D
:104EF00098A38F8F8D899E89009721F08017910745
:104F000008F48C010894C11CD11CA19654E0C5166C
:104F1000D10409F069CF0E94CB1FE82E992787FDA5
:104F20009095FC0125E0EE0FFF1F2A95E1F7E80FB1
:104F3000F91FE358F94F428540931C0781E26E2D1B
:104F40006802900111242358394F30930C072093A5
:104F50000B07EE2091F0858D968D892B51F0818D78
:104F6000928D8A3F910528F480179107E0F48C0117
:104F70001AC00B3F1105B8F014C00B30110598F0A2
:104F8000C8010A978A3F910530F48C01099758F4BB
:104F900009E010E008C00550114018F400EF10E0DF
:104FA00002C00AEF10E040930D0730931B072093D7
:104FB0001A070093B2050E94462A99278017910785
:104FC00040F00E94462A082F11270E5F1F4F0093C2
:104FD000B205EE2011F010920E07802F0E94D72903
:104FE0006EEE72E0C4010E94CB2A0E94652D0E94E1
:104FF000922DDF91CF911F910F91FF90EF90DF9055
:10500000CF90BF90AF909F908F9008958FEF809337
:1050100046078093590780936C0780937F0780939E
:1050200092070895E6E4F7E080E090E09C0180813B
:105030008F3F71F483E190E0289FF001299FF00DEC
:10504000389FF00D1124EA5CF84F81E0808B08C096
:10505000C901019673968530910541F72FEF3FEF17
:10506000C90108958530A8F4992787FD909523E11B
:1050700030E0829FF001839FF00D929FF00D11248C
:10508000EA5CF84F8089813021F4108A81E090E059
:1050900008958FEF9FEF0895CF92DF92EF92FF92E6
:1050A0000F931F93CF93DF93CDB7DEB728970FB63B
:1050B000F894DEBF0FBECDBF7A016901853008F0DC
:1050C00059C0992723E130E0829F8001839F100D12
:1050D000929F100D11240A5C184FF80180898F3FB0
:1050E00009F448C0FB0180819181A281B381898349
:1050F0009A83AB83BC8384819581A681B7818D839C
:105100009E83AF83B88729813A814B815C816D8111
:105110007E818F8198850E940725F80160837183C5
:1051200082839383F586E48617861686CE010196E0
:105130000E948F2529813A814B815C816D817E811E
:105140008F8198850E940725F80160877187828783
:1051500093872081318142815381260F371F481F59
:10516000591F2483358346835783D28AC18A81E0BD
:1051700090E002C08FEF9FEF28960FB6F894DEBF45
:105180000FBECDBFDF91CF911F910F91FF90EF9098
:10519000DF90CF9008950F931F93CF93DF93CDB7F8
:1051A000DEB728970FB6F894DEBF0FBECDBF082F2D
:1051B0000E948518CE0101960E948F251127298112
:1051C0003A814B815C816D817E818F8198850E94BF
:1051D00007259B01AC0183E190E0089FF001099F46
:1051E000F00D189FF00D1124EA5CF84F20873187ED
:1051F0004287538784819581A681B7812817390713
:105200004A075B0770F080819181A281B381820F90
:10521000931FA41FB51F84839583A683B783178626
:1052200016860E94871828960FB6F894DEBF0FBE28
:10523000CDBFDF91CF911F910F910895CF93DF9351
:10524000482F853010F081E010C0992723E130E02D
:10525000829FE001839FD00D929FD00D1124CA5CE4
:10526000D84F88898F3F21F482E00E94AB1A11C089
:10527000842F0E94CB282E853F858C859D852817FD
:10528000390754F00E948718E989FA89309709F0A4
:1052900009958FEF9FEF06C02F5F3F4F3F872E8707
:1052A00081E090E0DF91CF910895CF93DF93482F75
:1052B000853010F081E010C0992723E130E0829F13
:1052C000E001839FD00D929FD00D1124CA5CD84F6E
:1052D00088898F3F31F482E00E94AB1A80E090E031
:1052E0000CC0842F0E94CB282E853F858C859D8500
:1052F000821793079CF3821B9927DF91CF91089522
:1053000000000000000000000197D1F708951092FE
:105310008100089581E080938100089583B58160C4
:1053200083BD10928500109284000895CF93DF937F
:10533000CDB7DEB722970FB6F894DEBF0FBECDBF54
:1053400080918400909185009A83898389819A81D4
:1053500022960FB6F894DEBF0FBECDBFDF91CF917E
:1053600008951092B100E0E7F0E080818D7F8083A6
:1053700080818E7F808308958093B2000895E0E756
:10538000F0E080818360808383E08093B1000895A2
:1053900083B5826083BD1092B20010924C031092CC
:1053A000B20508958091B3008F5F992708958150C9
:1053B0008093B3000895882311F4109271008FEF49
:1053C0009FEF0895882319F08FEF9FEF08951092B3
:1053D00095001092940081E090E00895882319F0E0
:1053E00080E090E008958091940090919500089558
:1053F000882319F08FEF9FEF089582E0809371006A
:1054000081E090E00895882319F08FEF9FEF0895D1
:10541000CB010197059710F460933105109290002D
:1054200088E080939100852F99278093990040937D
:1054300098003093C9022093C802809131058130D1
:1054400021F48091910081600BC0823021F4809121
:105450009100826005C0833031F4809191008360B7
:105460008093910008C0843021F480919100846081
:10547000F7CF853019F081E090E008958091910098
:1054800085608093910081E090E008958091B20062
:10549000992708950F920FB60F921F922F923F9265
:1054A0004F925F926F927F928F929F92AF92BF9234
:1054B000CF92DF92EF92FF920F931F932F933F9320
:1054C0004F935F936F937F938F939F93AF93BF930C
:1054D000CF93DF93EF93FF93A0911A07B0911B072F
:1054E0000DB60D920EB60D921F92A0917504B0915B
:1054F00076041E90BEBFADBF08951F920F920FB6E7
:105500000F9211240F900FBE0F901F9018951F92AD
:105510000F920FB60F9211242F933F934F935F93E7
:105520006F937F938F939F93AF93BF93EF93FF936B
:10553000E091C802F091C902309711F0099504C0BA
:1055400060E08AE00E94A61BFF91EF91BF91AF91AE
:105550009F918F917F916F915F914F913F912F918B
:105560000F900FBE0F901F9018951F920F920FB6BD
:105570000F9211242F933F934F935F936F937F93D9
:105580008F939F93AF93BF93EF93FF9360E08AE075
:105590000E94A61BFFCFCF93DF93CDB7DEB7229734
:1055A0000FB6F894DEBF0FBECDBFFC018FEFE93719
:1055B000F80710F0E0E0F0E09F0144275527CB0109
:1055C000AA27BB27280F391F4A1F5B1F213080E005
:1055D000380781E0480780E0580778F08091840020
:1055E000909185009A83898389819A81E817F907C8
:1055F000A8F3205030404140504080918400909169
:1056000085009A83898389819A8182179307A8F3F9
:1056100022960FB6F894DEBF0FBECDBFDF91CF91BB
:105620000895EF92FF921F939EEF9093B20580E250
:105630008093B6009093B30013E017BB82E0809391
:10564000B00091EBE92EF12CF701108383B5826055
:1056500083BD17BB14BD83B5826083BD10928000EB
:1056600081E080938100109285001092840083B5C0
:10567000826083BD83B5816083BD0E94C829E0E755
:10568000F0E0808183608083F701108310924C03E7
:105690001F91FF90EF900895882311F4E89A33C08A
:1056A000813011F4E99A2FC0823011F4EA9A2BC0AC
:1056B000833021F480916B00816023C0843021F419
:1056C00080916B0082601DC0853021F480916B0059
:1056D000846017C0863021F480916B00886011C00F
:1056E000873021F480916B0080610BC0883021F4F9
:1056F00080916B00806205C0893041F480916B001D
:10570000806480936B0081E090E008958A3019F006
:105710008FEF9FEF089580916B00806880936B00FE
:1057200081E090E00895882311F4E89831C0813039
:1057300011F0823011F4E9982BC0833021F480916C
:105740006B008E7F23C0843021F480916B008D7FAD
:105750001DC0853021F480916B008B7F17C086308F
:1057600021F480916B00877F11C0873021F48091F4
:105770006B008F7E0BC0883021F480916B008F7D91
:1057800005C0893041F480916B008F7B80936B0062
:1057900081E090E008958A3019F08FEF9FEF08952F
:1057A00080916B008F7780936B0081E090E008958B
:1057B000882339F55093980740939707662321F47F
:1057C000809169008C7F45C0613049F48091690007
:1057D0008D7F809369008091690081603AC062305A
:1057E00049F480916900826080936900809169002A
:1057F0008E7F2FC0633009F069C08091690083609B
:1058000028C0813049F55093960740939507662349
:1058100021F480916900837F1CC0613049F480913C
:105820006900877F8093690080916900846011C05E
:10583000623049F4809169008860809369008091AA
:1058400069008B7F06C0633009F040C08091690019
:105850008C608093690037C0823031F55093960791
:1058600040939507662321F4809169008F7CF1CFE6
:10587000613049F4809169008F7D80936900809147
:1058800069008061E6CF623049F4809169008062EE
:1058900080936900809169008F7EDBCF6330B1F423
:1058A000809169008063D5CF8350883018F08FEFE6
:1058B0009FEF089580916800816080936800509305
:1058C0009C0740939B0781E090E0089581E090E081
:1058D00008951F920F920FB60F9211242F933F93AA
:1058E0004F935F936F937F938F939F93AF93BF93E8
:1058F000EF93FF93E0919707F0919807309711F09D
:10590000099504C060E08AE00E94A61BFF91EF9118
:10591000BF91AF919F918F917F916F915F914F91C7
:105920003F912F910F900FBE0F901F9018951F92CF
:105930000F920FB60F9211242F933F934F935F93C3
:105940006F937F938F939F93AF93BF93EF93FF9347
:10595000E0919B07F0919C07309711F0099504C0E6
:1059600060E08AE00E94A61BFF91EF91BF91AF918A
:105970009F918F917F916F915F914F913F912F9167
:105980000F900FBE0F901F9018958091B00090E07F
:10599000811191E081E09827892F99270895089532
:1059A00004B603FC03C081E090E008958FEF9FEF01
:1059B0000895A89508950E948518A89584B7877FB3
:1059C00084BFE0E6F0E080818861808310820E94DD
:1059D000871808950E94851884B7877F84BFA8958B
:1059E000E0E6F0E08081886180838DE080830E9422
:1059F00087180895089583B7817F866083BF83B732
:105A0000816083BF889583B78E7F83BF089583B7F6
:105A1000817F83BF83B7816083BF889583B78E7F83
:105A200083BF0895FC01768365830895FB01DA0145
:105A300025E52C933297292F3327208381833297B2
:105A40001182108232971182108232971182108255
:105A5000329711821082329711821082329711820E
:105A600010823297118210823297118210823297FF
:105A70001182108232971182108232971182108225
:105A800032971182108232971182108232971182DE
:105A900010823297118210823297118210823297CF
:105AA00011821082CF01089585E58093FE20EEEFEC
:105AB000F1E2F0937604E09375042CE838E1832F4B
:105AC000992780832093FF2108952CE838E1832FC4
:105AD00099278093FE212093FF2108950E94112B86
